{"abi":[{"type":"constructor","inputs":[{"name":"_config","type":"tuple","internalType":"struct Config","components":[{"name":"bondPortionPerc","type":"uint256","internalType":"uint256"},{"name":"ooChallengedPeriod","type":"uint64","internalType":"uint64"},{"name":"yieldReceiver","type":"address","internalType":"address"},{"name":"ooAddress","type":"address","internalType":"address"}]}],"stateMutability":"nonpayable"},{"type":"function","name":"assertionDisputedCallback","inputs":[{"name":"assertionId","type":"bytes32","internalType":"bytes32"}],"outputs":[],"stateMutability":"nonpayable"},{"type":"function","name":"assertionResolvedCallback","inputs":[{"name":"assertionId","type":"bytes32","internalType":"bytes32"},{"name":"assertedTruthfully","type":"bool","internalType":"bool"}],"outputs":[],"stateMutability":"nonpayable"},{"type":"function","name":"challengePaymentSovereign","inputs":[{"name":"paymentId","type":"uint256","internalType":"uint256"}],"outputs":[{"name":"","type":"bytes32","internalType":"bytes32"}],"stateMutability":"nonpayable"},{"type":"function","name":"challengePaymentSubsidized","inputs":[{"name":"paymentId","type":"uint256","internalType":"uint256"},{"name":"bondFrom","type":"address","internalType":"address"}],"outputs":[{"name":"","type":"bytes32","internalType":"bytes32"}],"stateMutability":"nonpayable"},{"type":"function","name":"claimVaultFees","inputs":[{"name":"token","type":"address","internalType":"contract IERC20"},{"name":"amount","type":"uint256","internalType":"uint256"},{"name":"to","type":"address","internalType":"address"}],"outputs":[],"stateMutability":"nonpayable"},{"type":"function","name":"claimVaultRewards","inputs":[{"name":"token","type":"address","internalType":"contract IERC20"},{"name":"to","type":"address","internalType":"address"}],"outputs":[],"stateMutability":"nonpayable"},{"type":"function","name":"config","inputs":[],"outputs":[{"name":"bondPortionPerc","type":"uint256","internalType":"uint256"},{"name":"ooChallengedPeriod","type":"uint64","internalType":"uint64"},{"name":"yieldReceiver","type":"address","internalType":"address"},{"name":"ooAddress","type":"address","internalType":"address"}],"stateMutability":"view"},{"type":"function","name":"createPayment","inputs":[{"name":"paymentCreate","type":"tuple","internalType":"struct PaymentCreate","components":[{"name":"token","type":"address","internalType":"contract IERC20"},{"name":"amount","type":"uint256","internalType":"uint256"},{"name":"payer","type":"address","internalType":"address"},{"name":"receiver","type":"address","internalType":"address"},{"name":"returnTo","type":"address","internalType":"address"},{"name":"payTo","type":"address","internalType":"address"},{"name":"payloadCid","type":"string","internalType":"string"},{"name":"startReviewOn","type":"uint256","internalType":"uint256"},{"name":"reviewDuration","type":"uint256","internalType":"uint256"}]}],"outputs":[],"stateMutability":"nonpayable"},{"type":"function","name":"deposit","inputs":[{"name":"token","type":"address","internalType":"contract IERC20"},{"name":"amount","type":"uint256","internalType":"uint256"}],"outputs":[],"stateMutability":"nonpayable"},{"type":"function","name":"getBondAmounts","inputs":[{"name":"paymentId","type":"uint256","internalType":"uint256"}],"outputs":[{"name":"","type":"uint256","internalType":"uint256"},{"name":"","type":"uint256","internalType":"uint256"},{"name":"","type":"uint256","internalType":"uint256"}],"stateMutability":"view"},{"type":"function","name":"getClaimableFees","inputs":[{"name":"token","type":"address","internalType":"contract IERC20"}],"outputs":[{"name":"","type":"uint256","internalType":"uint256"}],"stateMutability":"view"},{"type":"function","name":"latestId","inputs":[],"outputs":[{"name":"","type":"uint256","internalType":"uint256"}],"stateMutability":"view"},{"type":"function","name":"makePayment","inputs":[{"name":"paymentId","type":"uint256","internalType":"uint256"}],"outputs":[],"stateMutability":"nonpayable"},{"type":"function","name":"minAmounts","inputs":[{"name":"","type":"address","internalType":"contract IERC20"}],"outputs":[{"name":"","type":"uint256","internalType":"uint256"}],"stateMutability":"view"},{"type":"function","name":"owner","inputs":[],"outputs":[{"name":"","type":"address","internalType":"address"}],"stateMutability":"view"},{"type":"function","name":"paymentIdOfAssertionId","inputs":[{"name":"","type":"bytes32","internalType":"bytes32"}],"outputs":[{"name":"","type":"uint256","internalType":"uint256"}],"stateMutability":"view"},{"type":"function","name":"payments","inputs":[{"name":"","type":"uint256","internalType":"uint256"}],"outputs":[{"name":"status","type":"uint8","internalType":"enum PaymentStatus"},{"name":"finalResult","type":"uint8","internalType":"enum FinalResult"},{"name":"token","type":"address","internalType":"contract IERC20"},{"name":"amount","type":"uint256","internalType":"uint256"},{"name":"payer","type":"address","internalType":"address"},{"name":"receiver","type":"address","internalType":"address"},{"name":"returnTo","type":"address","internalType":"address"},{"name":"payTo","type":"address","internalType":"address"},{"name":"uma","type":"tuple","internalType":"struct UmaPayload","components":[{"name":"payloadCid","type":"string","internalType":"string"},{"name":"assertionId","type":"bytes32","internalType":"bytes32"},{"name":"bondToken","type":"address","internalType":"contract IERC20"},{"name":"userBond","type":"uint256","internalType":"uint256"},{"name":"ourBond","type":"uint256","internalType":"uint256"}]},{"name":"startReviewOn","type":"uint256","internalType":"uint256"},{"name":"reviewDuration","type":"uint256","internalType":"uint256"}],"stateMutability":"view"},{"type":"function","name":"renounceOwnership","inputs":[],"outputs":[],"stateMutability":"nonpayable"},{"type":"function","name":"resolveNotChallenged","inputs":[{"name":"paymentId","type":"uint256","internalType":"uint256"}],"outputs":[],"stateMutability":"nonpayable"},{"type":"function","name":"returnPayment","inputs":[{"name":"paymentId","type":"uint256","internalType":"uint256"}],"outputs":[],"stateMutability":"nonpayable"},{"type":"function","name":"setMinAmount","inputs":[{"name":"token","type":"address","internalType":"contract IERC20"},{"name":"amount","type":"uint256","internalType":"uint256"}],"outputs":[],"stateMutability":"nonpayable"},{"type":"function","name":"setVault","inputs":[{"name":"token","type":"address","internalType":"contract IERC20"},{"name":"vault","type":"address","internalType":"contract IATokenVault"}],"outputs":[],"stateMutability":"nonpayable"},{"type":"function","name":"transferOwnership","inputs":[{"name":"newOwner","type":"address","internalType":"address"}],"outputs":[],"stateMutability":"nonpayable"},{"type":"function","name":"updateConfig","inputs":[{"name":"_config","type":"tuple","internalType":"struct Config","components":[{"name":"bondPortionPerc","type":"uint256","internalType":"uint256"},{"name":"ooChallengedPeriod","type":"uint64","internalType":"uint64"},{"name":"yieldReceiver","type":"address","internalType":"address"},{"name":"ooAddress","type":"address","internalType":"address"}]}],"outputs":[],"stateMutability":"nonpayable"},{"type":"function","name":"vaultShares","inputs":[{"name":"","type":"address","internalType":"contract IERC20"}],"outputs":[{"name":"","type":"uint256","internalType":"uint256"}],"stateMutability":"view"},{"type":"function","name":"vaults","inputs":[{"name":"","type":"address","internalType":"contract IERC20"}],"outputs":[{"name":"","type":"address","internalType":"contract IATokenVault"}],"stateMutability":"view"},{"type":"function","name":"withdraw","inputs":[{"name":"token","type":"address","internalType":"contract IERC20"},{"name":"amount","type":"uint256","internalType":"uint256"}],"outputs":[],"stateMutability":"nonpayable"},{"type":"event","name":"ConfigUpdated","inputs":[{"name":"newConfig","type":"tuple","indexed":false,"internalType":"struct Config","components":[{"name":"bondPortionPerc","type":"uint256","internalType":"uint256"},{"name":"ooChallengedPeriod","type":"uint64","internalType":"uint64"},{"name":"yieldReceiver","type":"address","internalType":"address"},{"name":"ooAddress","type":"address","internalType":"address"}]}],"anonymous":false},{"type":"event","name":"FundsToBondAdded","inputs":[{"name":"token","type":"address","indexed":true,"internalType":"contract IERC20"},{"name":"from","type":"address","indexed":true,"internalType":"address"},{"name":"amount","type":"uint256","indexed":false,"internalType":"uint256"}],"anonymous":false},{"type":"event","name":"MinAmountSet","inputs":[{"name":"token","type":"address","indexed":true,"internalType":"contract IERC20"},{"name":"amount","type":"uint256","indexed":false,"internalType":"uint256"}],"anonymous":false},{"type":"event","name":"OwnershipTransferred","inputs":[{"name":"previousOwner","type":"address","indexed":true,"internalType":"address"},{"name":"newOwner","type":"address","indexed":true,"internalType":"address"}],"anonymous":false},{"type":"event","name":"PaymentChallenged","inputs":[{"name":"paymentId","type":"uint256","indexed":true,"internalType":"uint256"},{"name":"assertionId","type":"bytes32","indexed":true,"internalType":"bytes32"},{"name":"challenger","type":"address","indexed":false,"internalType":"address"},{"name":"userBond","type":"uint256","indexed":false,"internalType":"uint256"},{"name":"ourBond","type":"uint256","indexed":false,"internalType":"uint256"}],"anonymous":false},{"type":"event","name":"PaymentCreated","inputs":[{"name":"paymentId","type":"uint256","indexed":true,"internalType":"uint256"},{"name":"payer","type":"address","indexed":true,"internalType":"address"},{"name":"receiver","type":"address","indexed":true,"internalType":"address"},{"name":"token","type":"address","indexed":false,"internalType":"contract IERC20"},{"name":"amount","type":"uint256","indexed":false,"internalType":"uint256"},{"name":"payloadCid","type":"string","indexed":false,"internalType":"string"}],"anonymous":false},{"type":"event","name":"PaymentNotChallenged","inputs":[{"name":"paymentId","type":"uint256","indexed":true,"internalType":"uint256"}],"anonymous":false},{"type":"event","name":"PaymentResolved","inputs":[{"name":"paymentId","type":"uint256","indexed":true,"internalType":"uint256"},{"name":"status","type":"uint8","indexed":false,"internalType":"enum PaymentStatus"},{"name":"finalResult","type":"uint8","indexed":false,"internalType":"enum FinalResult"},{"name":"assertedTruthfully","type":"bool","indexed":false,"internalType":"bool"}],"anonymous":false},{"type":"event","name":"PaymentReturned","inputs":[{"name":"paymentId","type":"uint256","indexed":true,"internalType":"uint256"},{"name":"returnTo","type":"address","indexed":true,"internalType":"address"},{"name":"amount","type":"uint256","indexed":false,"internalType":"uint256"}],"anonymous":false},{"type":"event","name":"PaymentSent","inputs":[{"name":"paymentId","type":"uint256","indexed":true,"internalType":"uint256"},{"name":"recipient","type":"address","indexed":true,"internalType":"address"},{"name":"amount","type":"uint256","indexed":false,"internalType":"uint256"}],"anonymous":false},{"type":"error","name":"INSUFFICIENT_AMOUNT","inputs":[]},{"type":"error","name":"INVALID_PAYMENT_STATUS","inputs":[]},{"type":"error","name":"PAYMENT_ALREADY_SENT","inputs":[]},{"type":"error","name":"PAYMENT_NOT_OPEN","inputs":[]},{"type":"error","name":"PAYMENT_NOT_RETURNED","inputs":[]},{"type":"error","name":"REVIEW_PERIOD_EXPIRED","inputs":[]},{"type":"error","name":"REVIEW_PERIOD_NOT_ENDED","inputs":[]},{"type":"error","name":"REVIEW_PERIOD_NOT_STARTED","inputs":[]},{"type":"error","name":"TRANSFER_FAILED","inputs":[]},{"type":"error","name":"UNAUTHORIZED_CALLER","inputs":[]}],"bytecode":{"object":"0x60806040526000600360006101000a81548160ff02191690831515021790555060006007553480156200003157600080fd5b506040516200615e3803806200615e833981810160405281019062000057919062000490565b620000776200006b620001b160201b60201c565b620001b960201b60201c565b8060086000820151816000015560208201518160010160006101000a81548167ffffffffffffffff021916908367ffffffffffffffff16021790555060408201518160010160086101000a81548173ffffffffffffffffffffffffffffffffffffffff021916908373ffffffffffffffffffffffffffffffffffffffff16021790555060608201518160020160006101000a81548173ffffffffffffffffffffffffffffffffffffffff021916908373ffffffffffffffffffffffffffffffffffffffff160217905550905050600860020160009054906101000a900473ffffffffffffffffffffffffffffffffffffffff16600360016101000a81548173ffffffffffffffffffffffffffffffffffffffff021916908373ffffffffffffffffffffffffffffffffffffffff16021790555050620004c2565b600033905090565b60008060009054906101000a900473ffffffffffffffffffffffffffffffffffffffff169050816000806101000a81548173ffffffffffffffffffffffffffffffffffffffff021916908373ffffffffffffffffffffffffffffffffffffffff1602179055508173ffffffffffffffffffffffffffffffffffffffff168173ffffffffffffffffffffffffffffffffffffffff167f8be0079c531659141344cd1fd0a4f28419497f9722a3daafe3b4186f6b6457e060405160405180910390a35050565b6000604051905090565b600080fd5b600080fd5b6000601f19601f8301169050919050565b7f4e487b7100000000000000000000000000000000000000000000000000000000600052604160045260246000fd5b620002dc8262000291565b810181811067ffffffffffffffff82111715620002fe57620002fd620002a2565b5b80604052505050565b6000620003136200027d565b9050620003218282620002d1565b919050565b6000819050919050565b6200033b8162000326565b81146200034757600080fd5b50565b6000815190506200035b8162000330565b92915050565b600067ffffffffffffffff82169050919050565b620003808162000361565b81146200038c57600080fd5b50565b600081519050620003a08162000375565b92915050565b600073ffffffffffffffffffffffffffffffffffffffff82169050919050565b6000620003d382620003a6565b9050919050565b620003e581620003c6565b8114620003f157600080fd5b50565b6000815190506200040581620003da565b92915050565b6000608082840312156200042457620004236200028c565b5b62000430608062000307565b9050600062000442848285016200034a565b600083015250602062000458848285016200038f565b60208301525060406200046e84828501620003f4565b60408301525060606200048484828501620003f4565b60608301525092915050565b600060808284031215620004a957620004a862000287565b5b6000620004b9848285016200040b565b91505092915050565b615c8c80620004d26000396000f3fe608060405234801561001057600080fd5b50600436106101a95760003560e01c8063a28118f8116100f9578063f1b156b211610097578063f3fef3a311610071578063f3fef3a3146104e9578063f649b7b314610505578063f699e58014610521578063fcec50441461053d576101a9565b8063f1b156b214610481578063f2fde38b1461049d578063f3d02405146104b9576101a9565b8063d5708d5a116100d3578063d5708d5a146103e9578063d6b8dbd614610405578063d713858414610421578063de35e7b914610451576101a9565b8063a28118f814610381578063a622ee7c1461039d578063d448a4ec146103cd576101a9565b806379502c551161016657806387d817891161014057806387d81789146102c75780638da5cb5b146103015780639995eacb1461031f5780639c5e52d514610351576101a9565b806379502c551461025a5780637c01fdcf1461027b57806380978e3e14610297576101a9565b806347e7ef24146101ae5780634bfbbe0b146101ca5780635114cb52146101e85780636a6f66e614610204578063714ccf7b14610234578063715018a614610250575b600080fd5b6101c860048036038101906101c39190614286565b610559565b005b6101d261074f565b6040516101df91906142d5565b60405180910390f35b61020260048036038101906101fd91906142f0565b610755565b005b61021e6004803603810190610219919061431d565b610dfe565b60405161022b91906142d5565b60405180910390f35b61024e60048036038101906102499190614388565b610f19565b005b610258610fa3565b005b610262610fb7565b60405161027294939291906143fa565b60405180910390f35b6102956004803603810190610290919061446b565b611029565b005b6102b160048036038101906102ac91906144ab565b611174565b6040516102be9190614504565b60405180910390f35b6102e160048036038101906102dc91906142f0565b611397565b6040516102f89b9a99989796959493929190614770565b60405180910390f35b6103096115bb565b6040516103169190614822565b60405180910390f35b610339600480360381019061033491906142f0565b6115e4565b6040516103489392919061483d565b60405180910390f35b61036b6004803603810190610366919061431d565b611ab8565b60405161037891906142d5565b60405180910390f35b61039b60048036038101906103969190614aaf565b611ad0565b005b6103b760048036038101906103b2919061431d565b6121ea565b6040516103c49190614b19565b60405180910390f35b6103e760048036038101906103e29190614b60565b61221d565b005b61040360048036038101906103fe9190614286565b612220565b005b61041f600480360381019061041a9190614c31565b612335565b005b61043b6004803603810190610436919061431d565b612498565b60405161044891906142d5565b60405180910390f35b61046b60048036038101906104669190614b60565b6124b0565b60405161047891906142d5565b60405180910390f35b61049b60048036038101906104969190614c96565b6124c8565b005b6104b760048036038101906104b29190614cd6565b612738565b005b6104d360048036038101906104ce91906142f0565b6127bb565b6040516104e09190614504565b60405180910390f35b61050360048036038101906104fe9190614286565b6128ed565b005b61051f600480360381019061051a91906142f0565b612ae1565b005b61053b60048036038101906105369190614d03565b612c52565b005b610557600480360381019061055291906142f0565b612da0565b005b6000600160008473ffffffffffffffffffffffffffffffffffffffff1673ffffffffffffffffffffffffffffffffffffffff16815260200190815260200160002060009054906101000a900473ffffffffffffffffffffffffffffffffffffffff169050600073ffffffffffffffffffffffffffffffffffffffff168173ffffffffffffffffffffffffffffffffffffffff161461074a578273ffffffffffffffffffffffffffffffffffffffff1663095ea7b382846040518363ffffffff1660e01b815260040161062c929190614d56565b6020604051808303816000875af115801561064b573d6000803e3d6000fd5b505050506040513d601f19601f8201168201806040525081019061066f9190614d94565b5060008173ffffffffffffffffffffffffffffffffffffffff16636e553f6584306040518363ffffffff1660e01b81526004016106ad929190614dc1565b6020604051808303816000875af11580156106cc573d6000803e3d6000fd5b505050506040513d601f19601f820116820180604052508101906106f09190614dff565b905080600260008673ffffffffffffffffffffffffffffffffffffffff1673ffffffffffffffffffffffffffffffffffffffff16815260200190815260200160002060008282546107419190614e5b565b92505081905550505b505050565b60075481565b600060056000838152602001908152602001600020604051806101600160405290816000820160009054906101000a900460ff16600481111561079b5761079a61451f565b5b60048111156107ad576107ac61451f565b5b81526020016000820160019054906101000a900460ff1660028111156107d6576107d561451f565b5b60028111156107e8576107e761451f565b5b81526020016000820160029054906101000a900473ffffffffffffffffffffffffffffffffffffffff1673ffffffffffffffffffffffffffffffffffffffff1673ffffffffffffffffffffffffffffffffffffffff168152602001600182015481526020016002820160009054906101000a900473ffffffffffffffffffffffffffffffffffffffff1673ffffffffffffffffffffffffffffffffffffffff1673ffffffffffffffffffffffffffffffffffffffff1681526020016003820160009054906101000a900473ffffffffffffffffffffffffffffffffffffffff1673ffffffffffffffffffffffffffffffffffffffff1673ffffffffffffffffffffffffffffffffffffffff1681526020016004820160009054906101000a900473ffffffffffffffffffffffffffffffffffffffff1673ffffffffffffffffffffffffffffffffffffffff1673ffffffffffffffffffffffffffffffffffffffff1681526020016005820160009054906101000a900473ffffffffffffffffffffffffffffffffffffffff1673ffffffffffffffffffffffffffffffffffffffff1673ffffffffffffffffffffffffffffffffffffffff168152602001600682016040518060a00160405290816000820180546109c490614ebe565b80601f01602080910402602001604051908101604052809291908181526020018280546109f090614ebe565b8015610a3d5780601f10610a1257610100808354040283529160200191610a3d565b820191906000526020600020905b815481529060010190602001808311610a2057829003601f168201915b50505050508152602001600182015481526020016002820160009054906101000a900473ffffffffffffffffffffffffffffffffffffffff1673ffffffffffffffffffffffffffffffffffffffff1673ffffffffffffffffffffffffffffffffffffffff168152602001600382015481526020016004820154815250508152602001600b8201548152602001600c82015481525050905060006002811115610ae857610ae761451f565b5b81602001516002811115610aff57610afe61451f565b5b14610b36576040517f733f6de800000000000000000000000000000000000000000000000000000000815260040160405180910390fd5b60016004811115610b4a57610b4961451f565b5b81600001516004811115610b6157610b6061451f565b5b14158015610b975750600480811115610b7d57610b7c61451f565b5b81600001516004811115610b9457610b9361451f565b5b14155b15610bce576040517f4f14b92e00000000000000000000000000000000000000000000000000000000815260040160405180910390fd5b60016005600084815260200190815260200160002060000160016101000a81548160ff02191690836002811115610c0857610c0761451f565b5b0217905550610c1f816040015182606001516128ed565b6000816040015173ffffffffffffffffffffffffffffffffffffffff1663a9059cbb8360e0015184606001516040518363ffffffff1660e01b8152600401610c68929190614d56565b6020604051808303816000875af1158015610c87573d6000803e3d6000fd5b505050506040513d601f19601f82011682018060405250810190610cab9190614d94565b905080610ce4576040517f3f4ab80e00000000000000000000000000000000000000000000000000000000815260040160405180910390fd5b600360009054906101000a900460ff1615610da257610d1b604051806060016040528060298152602001615b596029913984613413565b610d5e6040518060400160405280600681526020017f506179546f3a00000000000000000000000000000000000000000000000000008152508360e001516134af565b610da16040518060400160405280600781526020017f416d6f756e743a000000000000000000000000000000000000000000000000008152508360600151613413565b5b8160e0015173ffffffffffffffffffffffffffffffffffffffff16837f952e5301753c5bc62cbfbdbe1b6553cd54796e01da9cfeaaf29921d6ede1a7268460600151604051610df191906142d5565b60405180910390a3505050565b600080600160008473ffffffffffffffffffffffffffffffffffffffff1673ffffffffffffffffffffffffffffffffffffffff16815260200190815260200160002060009054906101000a900473ffffffffffffffffffffffffffffffffffffffff169050600073ffffffffffffffffffffffffffffffffffffffff168173ffffffffffffffffffffffffffffffffffffffff1603610ea1576000915050610f14565b8073ffffffffffffffffffffffffffffffffffffffff1663274f0e246040518163ffffffff1660e01b8152600401602060405180830381865afa158015610eec573d6000803e3d6000fd5b505050506040513d601f19601f82011682018060405250810190610f109190614dff565b9150505b919050565b610f2161354b565b80600160008473ffffffffffffffffffffffffffffffffffffffff1673ffffffffffffffffffffffffffffffffffffffff16815260200190815260200160002060006101000a81548173ffffffffffffffffffffffffffffffffffffffff021916908373ffffffffffffffffffffffffffffffffffffffff1602179055505050565b610fab61354b565b610fb560006135c9565b565b60088060000154908060010160009054906101000a900467ffffffffffffffff16908060010160089054906101000a900473ffffffffffffffffffffffffffffffffffffffff16908060020160009054906101000a900473ffffffffffffffffffffffffffffffffffffffff16905084565b61103161354b565b6000600160008473ffffffffffffffffffffffffffffffffffffffff1673ffffffffffffffffffffffffffffffffffffffff16815260200190815260200160002060009054906101000a900473ffffffffffffffffffffffffffffffffffffffff169050600073ffffffffffffffffffffffffffffffffffffffff168173ffffffffffffffffffffffffffffffffffffffff1603611104576040517f08c379a00000000000000000000000000000000000000000000000000000000081526004016110fb90614f4c565b60405180910390fd5b8073ffffffffffffffffffffffffffffffffffffffff1663ef5cfb8c836040518263ffffffff1660e01b815260040161113d9190614822565b600060405180830381600087803b15801561115757600080fd5b505af115801561116b573d6000803e3d6000fd5b50505050505050565b600080600560008581526020019081526020016000209050600360009054906101000a900460ff16156111c3576111c2604051806060016040528060228152602001615b006022913961368d565b5b6000806111cf866115e4565b5091509150600360009054906101000a900460ff16156112545761121e604051806060016040528060258152602001615b8260259139670de0b6b3a7640000846112199190614f9b565b613413565b611253604051806060016040528060248152602001615c3360249139670de0b6b3a76400008361124e9190614f9b565b613413565b5b60008360000160029054906101000a900473ffffffffffffffffffffffffffffffffffffffff1673ffffffffffffffffffffffffffffffffffffffff166323b872dd8730866040518463ffffffff1660e01b81526004016112b793929190614fcc565b6020604051808303816000875af11580156112d6573d6000803e3d6000fd5b505050506040513d601f19601f820116820180604052508101906112fa9190614d94565b905080611333576040517f3f4ab80e00000000000000000000000000000000000000000000000000000000815260040160405180910390fd5b600360009054906101000a900460ff161561136a576113696040518060600160405280602e8152602001615aac602e913961368d565b5b82846006016003018190555081846006016004018190555061138b87613726565b94505050505092915050565b60056020528060005260406000206000915090508060000160009054906101000a900460ff16908060000160019054906101000a900460ff16908060000160029054906101000a900473ffffffffffffffffffffffffffffffffffffffff16908060010154908060020160009054906101000a900473ffffffffffffffffffffffffffffffffffffffff16908060030160009054906101000a900473ffffffffffffffffffffffffffffffffffffffff16908060040160009054906101000a900473ffffffffffffffffffffffffffffffffffffffff16908060050160009054906101000a900473ffffffffffffffffffffffffffffffffffffffff1690806006016040518060a00160405290816000820180546114b490614ebe565b80601f01602080910402602001604051908101604052809291908181526020018280546114e090614ebe565b801561152d5780601f106115025761010080835404028352916020019161152d565b820191906000526020600020905b81548152906001019060200180831161151057829003601f168201915b50505050508152602001600182015481526020016002820160009054906101000a900473ffffffffffffffffffffffffffffffffffffffff1673ffffffffffffffffffffffffffffffffffffffff1673ffffffffffffffffffffffffffffffffffffffff168152602001600382015481526020016004820154815250509080600b01549080600c015490508b565b60008060009054906101000a900473ffffffffffffffffffffffffffffffffffffffff16905090565b60008060008060056000868152602001908152602001600020604051806101600160405290816000820160009054906101000a900460ff16600481111561162e5761162d61451f565b5b60048111156116405761163f61451f565b5b81526020016000820160019054906101000a900460ff1660028111156116695761166861451f565b5b600281111561167b5761167a61451f565b5b81526020016000820160029054906101000a900473ffffffffffffffffffffffffffffffffffffffff1673ffffffffffffffffffffffffffffffffffffffff1673ffffffffffffffffffffffffffffffffffffffff168152602001600182015481526020016002820160009054906101000a900473ffffffffffffffffffffffffffffffffffffffff1673ffffffffffffffffffffffffffffffffffffffff1673ffffffffffffffffffffffffffffffffffffffff1681526020016003820160009054906101000a900473ffffffffffffffffffffffffffffffffffffffff1673ffffffffffffffffffffffffffffffffffffffff1673ffffffffffffffffffffffffffffffffffffffff1681526020016004820160009054906101000a900473ffffffffffffffffffffffffffffffffffffffff1673ffffffffffffffffffffffffffffffffffffffff1673ffffffffffffffffffffffffffffffffffffffff1681526020016005820160009054906101000a900473ffffffffffffffffffffffffffffffffffffffff1673ffffffffffffffffffffffffffffffffffffffff1673ffffffffffffffffffffffffffffffffffffffff168152602001600682016040518060a001604052908160008201805461185790614ebe565b80601f016020809104026020016040519081016040528092919081815260200182805461188390614ebe565b80156118d05780601f106118a5576101008083540402835291602001916118d0565b820191906000526020600020905b8154815290600101906020018083116118b357829003601f168201915b50505050508152602001600182015481526020016002820160009054906101000a900473ffffffffffffffffffffffffffffffffffffffff1673ffffffffffffffffffffffffffffffffffffffff1673ffffffffffffffffffffffffffffffffffffffff168152602001600382015481526020016004820154815250508152602001600b8201548152602001600c8201548152505090506000600360019054906101000a900473ffffffffffffffffffffffffffffffffffffffff1673ffffffffffffffffffffffffffffffffffffffff16634360af3d83604001516040518263ffffffff1660e01b81526004016119c89190614822565b602060405180830381865afa1580156119e5573d6000803e3d6000fd5b505050506040513d601f19601f82011682018060405250810190611a099190614dff565b9050600360009054906101000a900460ff1615611a7357611a726040518060400160405280601981526020017f6765744d696e696d756d426f6e64202d206d696e426f756e6400000000000000815250670de0b6b3a764000083611a6d9190614f9b565b613413565b5b6000606460086000015483611a889190615003565b611a929190614f9b565b905060008183611aa2919061505d565b9050818184965096509650505050509193909250565b60046020528060005260406000206000915090505481565b60046000826000015173ffffffffffffffffffffffffffffffffffffffff1673ffffffffffffffffffffffffffffffffffffffff1681526020019081526020016000205481602001511015611b51576040517f2cd294cf00000000000000000000000000000000000000000000000000000000815260040160405180910390fd5b60008073ffffffffffffffffffffffffffffffffffffffff16826080015173ffffffffffffffffffffffffffffffffffffffff1614611b94578160800151611b9a565b81604001515b905060008073ffffffffffffffffffffffffffffffffffffffff168360a0015173ffffffffffffffffffffffffffffffffffffffff1614611bdf578260a00151611be5565b82606001515b9050600060405180610160016040528060006004811115611c0957611c0861451f565b5b815260200160006002811115611c2257611c2161451f565b5b8152602001856000015173ffffffffffffffffffffffffffffffffffffffff16815260200185602001518152602001856040015173ffffffffffffffffffffffffffffffffffffffff168152602001856060015173ffffffffffffffffffffffffffffffffffffffff1681526020018473ffffffffffffffffffffffffffffffffffffffff1681526020018373ffffffffffffffffffffffffffffffffffffffff1681526020016040518060a001604052808760c0015181526020016000801b8152602001876000015173ffffffffffffffffffffffffffffffffffffffff16815260200160008152602001600081525081526020018560e00151815260200185610100015181525090506000816040015173ffffffffffffffffffffffffffffffffffffffff166323b872dd83608001513085606001516040518463ffffffff1660e01b8152600401611d7893929190614fcc565b6020604051808303816000875af1158015611d97573d6000803e3d6000fd5b505050506040513d601f19601f82011682018060405250810190611dbb9190614d94565b905080611df4576040517f3f4ab80e00000000000000000000000000000000000000000000000000000000815260040160405180910390fd5b611e0682604001518360600151610559565b6000600754905060076000815480929190611e2090615091565b9190505550826005600083815260200190815260200160002060008201518160000160006101000a81548160ff02191690836004811115611e6457611e6361451f565b5b021790555060208201518160000160016101000a81548160ff02191690836002811115611e9457611e9361451f565b5b021790555060408201518160000160026101000a81548173ffffffffffffffffffffffffffffffffffffffff021916908373ffffffffffffffffffffffffffffffffffffffff1602179055506060820151816001015560808201518160020160006101000a81548173ffffffffffffffffffffffffffffffffffffffff021916908373ffffffffffffffffffffffffffffffffffffffff16021790555060a08201518160030160006101000a81548173ffffffffffffffffffffffffffffffffffffffff021916908373ffffffffffffffffffffffffffffffffffffffff16021790555060c08201518160040160006101000a81548173ffffffffffffffffffffffffffffffffffffffff021916908373ffffffffffffffffffffffffffffffffffffffff16021790555060e08201518160050160006101000a81548173ffffffffffffffffffffffffffffffffffffffff021916908373ffffffffffffffffffffffffffffffffffffffff160217905550610100820151816006016000820151816000019081612025919061527b565b506020820151816001015560408201518160020160006101000a81548173ffffffffffffffffffffffffffffffffffffffff021916908373ffffffffffffffffffffffffffffffffffffffff1602179055506060820151816003015560808201518160040155505061012082015181600b015561014082015181600c0155905050600360009054906101000a900460ff1615612164576120dd6040518060600160405280602c8152602001615a42602c913982613413565b6121206040518060400160405280600681526020017f50617965723a000000000000000000000000000000000000000000000000000081525084608001516134af565b6121636040518060400160405280600981526020017f52656365697665723a00000000000000000000000000000000000000000000008152508460a001516134af565b5b8260a0015173ffffffffffffffffffffffffffffffffffffffff16836080015173ffffffffffffffffffffffffffffffffffffffff16827f3a7163ae221e16e58bfdfb798dbf9872efd5c45508e48e2d97fdc57820a51dce866040015187606001518b60c001516040516121da93929190615386565b60405180910390a4505050505050565b60016020528060005260406000206000915054906101000a900473ffffffffffffffffffffffffffffffffffffffff1681565b50565b61222861354b565b80600460008473ffffffffffffffffffffffffffffffffffffffff1673ffffffffffffffffffffffffffffffffffffffff16815260200190815260200160002081905550600360009054906101000a900460ff16156122e3576122a3604051806060016040528060268152602001615ada60269139836134af565b6122e26040518060400160405280600781526020017f416d6f756e743a0000000000000000000000000000000000000000000000000081525082613413565b5b8173ffffffffffffffffffffffffffffffffffffffff167fceffd9e84ee52322af4b73f89f3db2865e649885c0208df026ceeddcf9e9b8918260405161232991906142d5565b60405180910390a25050565b61233d61354b565b8060086000820151816000015560208201518160010160006101000a81548167ffffffffffffffff021916908367ffffffffffffffff16021790555060408201518160010160086101000a81548173ffffffffffffffffffffffffffffffffffffffff021916908373ffffffffffffffffffffffffffffffffffffffff16021790555060608201518160020160006101000a81548173ffffffffffffffffffffffffffffffffffffffff021916908373ffffffffffffffffffffffffffffffffffffffff160217905550905050600360009054906101000a900460ff161561245e5761245d6040518060400160405280601c81526020017f456d697474696e6720436f6e66696755706461746564206576656e740000000081525061368d565b5b7f43972123bee83ace373a234bd7d09e6d771008101be68d9caeef41aa9052d7368160405161248d9190615437565b60405180910390a150565b60026020528060005260406000206000915090505481565b60066020528060005260406000206000915090505481565b600360019054906101000a900473ffffffffffffffffffffffffffffffffffffffff1673ffffffffffffffffffffffffffffffffffffffff163373ffffffffffffffffffffffffffffffffffffffff161461254f576040517fe15e56c900000000000000000000000000000000000000000000000000000000815260040160405180910390fd5b60006006600084815260200190815260200160002054905081156126525760036005600083815260200190815260200160002060000160006101000a81548160ff021916908360048111156125a7576125a661451f565b5b0217905550600360009054906101000a900460ff1615612606576125e36040518060600160405280602d8152602001615ba7602d913982613413565b6126056040518060600160405280603e8152602001615a6e603e91398361403d565b5b807f046b6f9caf09acb2eebffac1ba8e9fac693eb46eaa23228177c396d2dbc6d4b7600360018560405161263c93929190615461565b60405180910390a261264d81612da0565b612733565b60046005600083815260200190815260200160002060000160006101000a81548160ff0219169083600481111561268c5761268b61451f565b5b0217905550600360009054906101000a900460ff16156126eb576126c86040518060600160405280602d8152602001615ba7602d913982613413565b6126ea604051806060016040528060378152602001615b22603791398361403d565b5b807f046b6f9caf09acb2eebffac1ba8e9fac693eb46eaa23228177c396d2dbc6d4b7600460028560405161272193929190615461565b60405180910390a261273281610755565b5b505050565b61274061354b565b600073ffffffffffffffffffffffffffffffffffffffff168173ffffffffffffffffffffffffffffffffffffffff16036127af576040517f08c379a00000000000000000000000000000000000000000000000000000000081526004016127a69061550a565b60405180910390fd5b6127b8816135c9565b50565b60008060056000848152602001908152602001600020905060006127de846115e4565b9250505060008260000160029054906101000a900473ffffffffffffffffffffffffffffffffffffffff1673ffffffffffffffffffffffffffffffffffffffff166323b872dd3330856040518463ffffffff1660e01b815260040161284593929190614fcc565b6020604051808303816000875af1158015612864573d6000803e3d6000fd5b505050506040513d601f19601f820116820180604052508101906128889190614d94565b9050806128c1576040517f3f4ab80e00000000000000000000000000000000000000000000000000000000815260040160405180910390fd5b818360060160030181905550600083600601600401819055506128e385613726565b9350505050919050565b6000600160008473ffffffffffffffffffffffffffffffffffffffff1673ffffffffffffffffffffffffffffffffffffffff16815260200190815260200160002060009054906101000a900473ffffffffffffffffffffffffffffffffffffffff169050600073ffffffffffffffffffffffffffffffffffffffff168173ffffffffffffffffffffffffffffffffffffffff1614612adc5760008173ffffffffffffffffffffffffffffffffffffffff16630a28a477846040518263ffffffff1660e01b81526004016129c091906142d5565b602060405180830381865afa1580156129dd573d6000803e3d6000fd5b505050506040513d601f19601f82011682018060405250810190612a019190614dff565b90508173ffffffffffffffffffffffffffffffffffffffff1663b460af948430306040518463ffffffff1660e01b8152600401612a409392919061552a565b6020604051808303816000875af1158015612a5f573d6000803e3d6000fd5b505050506040513d601f19601f82011682018060405250810190612a839190614dff565b5080600260008673ffffffffffffffffffffffffffffffffffffffff1673ffffffffffffffffffffffffffffffffffffffff1681526020019081526020016000206000828254612ad3919061505d565b92505081905550505b505050565b600060056000838152602001908152602001600020905060006004811115612b0c57612b0b61451f565b5b8160000160009054906101000a900460ff166004811115612b3057612b2f61451f565b5b14612b67576040517f6603b01700000000000000000000000000000000000000000000000000000000815260040160405180910390fd5b80600c015481600b0154612b7b9190614e5b565b4211612bb3576040517f9363579e00000000000000000000000000000000000000000000000000000000815260040160405180910390fd5b60018160000160006101000a81548160ff02191690836004811115612bdb57612bda61451f565b5b0217905550600360009054906101000a900460ff1615612c1857612c17604051806060016040528060328152602001615bd46032913983613413565b5b817f6c0b08df307395fc66cccdaab7cfedba2bbf2270444ac5a0b554d8265286fb2560405160405180910390a2612c4e82610755565b5050565b612c5a61354b565b6000600160008573ffffffffffffffffffffffffffffffffffffffff1673ffffffffffffffffffffffffffffffffffffffff16815260200190815260200160002060009054906101000a900473ffffffffffffffffffffffffffffffffffffffff169050600073ffffffffffffffffffffffffffffffffffffffff168173ffffffffffffffffffffffffffffffffffffffff1603612d2d576040517f08c379a0000000000000000000000000000000000000000000000000000000008152600401612d2490614f4c565b60405180910390fd5b8073ffffffffffffffffffffffffffffffffffffffff1663ad3b1b4783856040518363ffffffff1660e01b8152600401612d68929190614d56565b600060405180830381600087803b158015612d8257600080fd5b505af1158015612d96573d6000803e3d6000fd5b5050505050505050565b600060056000838152602001908152602001600020604051806101600160405290816000820160009054906101000a900460ff166004811115612de657612de561451f565b5b6004811115612df857612df761451f565b5b81526020016000820160019054906101000a900460ff166002811115612e2157612e2061451f565b5b6002811115612e3357612e3261451f565b5b81526020016000820160029054906101000a900473ffffffffffffffffffffffffffffffffffffffff1673ffffffffffffffffffffffffffffffffffffffff1673ffffffffffffffffffffffffffffffffffffffff168152602001600182015481526020016002820160009054906101000a900473ffffffffffffffffffffffffffffffffffffffff1673ffffffffffffffffffffffffffffffffffffffff1673ffffffffffffffffffffffffffffffffffffffff1681526020016003820160009054906101000a900473ffffffffffffffffffffffffffffffffffffffff1673ffffffffffffffffffffffffffffffffffffffff1673ffffffffffffffffffffffffffffffffffffffff1681526020016004820160009054906101000a900473ffffffffffffffffffffffffffffffffffffffff1673ffffffffffffffffffffffffffffffffffffffff1673ffffffffffffffffffffffffffffffffffffffff1681526020016005820160009054906101000a900473ffffffffffffffffffffffffffffffffffffffff1673ffffffffffffffffffffffffffffffffffffffff1673ffffffffffffffffffffffffffffffffffffffff168152602001600682016040518060a001604052908160008201805461300f90614ebe565b80601f016020809104026020016040519081016040528092919081815260200182805461303b90614ebe565b80156130885780601f1061305d57610100808354040283529160200191613088565b820191906000526020600020905b81548152906001019060200180831161306b57829003601f168201915b50505050508152602001600182015481526020016002820160009054906101000a900473ffffffffffffffffffffffffffffffffffffffff1673ffffffffffffffffffffffffffffffffffffffff1673ffffffffffffffffffffffffffffffffffffffff168152602001600382015481526020016004820154815250508152602001600b8201548152602001600c820154815250509050600060028111156131335761313261451f565b5b8160200151600281111561314a5761314961451f565b5b14613181576040517f733f6de800000000000000000000000000000000000000000000000000000000815260040160405180910390fd5b600360048111156131955761319461451f565b5b816000015160048111156131ac576131ab61451f565b5b146131e3576040517fef12217c00000000000000000000000000000000000000000000000000000000815260040160405180910390fd5b60026005600084815260200190815260200160002060000160016101000a81548160ff0219169083600281111561321d5761321c61451f565b5b0217905550613234816040015182606001516128ed565b6000816040015173ffffffffffffffffffffffffffffffffffffffff1663a9059cbb8360c0015184606001516040518363ffffffff1660e01b815260040161327d929190614d56565b6020604051808303816000875af115801561329c573d6000803e3d6000fd5b505050506040513d601f19601f820116820180604052508101906132c09190614d94565b9050806132f9576040517f3f4ab80e00000000000000000000000000000000000000000000000000000000815260040160405180910390fd5b600360009054906101000a900460ff16156133b7576133306040518060600160405280602d8152602001615c06602d913984613413565b6133736040518060400160405280600981526020017f52657475726e546f3a00000000000000000000000000000000000000000000008152508360c001516134af565b6133b66040518060400160405280600781526020017f416d6f756e743a000000000000000000000000000000000000000000000000008152508360600151613413565b5b8160c0015173ffffffffffffffffffffffffffffffffffffffff16837ff38eb921de9a5003e89b3fe1c11aa8606c7533e3cb18c6068aa40b7ee3528e09846060015160405161340691906142d5565b60405180910390a3505050565b6134ab8282604051602401613429929190615561565b6040516020818303038152906040527fb60e72cc000000000000000000000000000000000000000000000000000000007bffffffffffffffffffffffffffffffffffffffffffffffffffffffff19166020820180517bffffffffffffffffffffffffffffffffffffffffffffffffffffffff83818316178352505050506140d9565b5050565b61354782826040516024016134c5929190615591565b6040516020818303038152906040527f319af333000000000000000000000000000000000000000000000000000000007bffffffffffffffffffffffffffffffffffffffffffffffffffffffff19166020820180517bffffffffffffffffffffffffffffffffffffffffffffffffffffffff83818316178352505050506140d9565b5050565b613553614102565b73ffffffffffffffffffffffffffffffffffffffff166135716115bb565b73ffffffffffffffffffffffffffffffffffffffff16146135c7576040517f08c379a00000000000000000000000000000000000000000000000000000000081526004016135be9061560d565b60405180910390fd5b565b60008060009054906101000a900473ffffffffffffffffffffffffffffffffffffffff169050816000806101000a81548173ffffffffffffffffffffffffffffffffffffffff021916908373ffffffffffffffffffffffffffffffffffffffff1602179055508173ffffffffffffffffffffffffffffffffffffffff168173ffffffffffffffffffffffffffffffffffffffff167f8be0079c531659141344cd1fd0a4f28419497f9722a3daafe3b4186f6b6457e060405160405180910390a35050565b613723816040516024016136a1919061562d565b6040516020818303038152906040527f41304fac000000000000000000000000000000000000000000000000000000007bffffffffffffffffffffffffffffffffffffffffffffffffffffffff19166020820180517bffffffffffffffffffffffffffffffffffffffffffffffffffffffff83818316178352505050506140d9565b50565b60008060056000848152602001908152602001600020604051806101600160405290816000820160009054906101000a900460ff16600481111561376d5761376c61451f565b5b600481111561377f5761377e61451f565b5b81526020016000820160019054906101000a900460ff1660028111156137a8576137a761451f565b5b60028111156137ba576137b961451f565b5b81526020016000820160029054906101000a900473ffffffffffffffffffffffffffffffffffffffff1673ffffffffffffffffffffffffffffffffffffffff1673ffffffffffffffffffffffffffffffffffffffff168152602001600182015481526020016002820160009054906101000a900473ffffffffffffffffffffffffffffffffffffffff1673ffffffffffffffffffffffffffffffffffffffff1673ffffffffffffffffffffffffffffffffffffffff1681526020016003820160009054906101000a900473ffffffffffffffffffffffffffffffffffffffff1673ffffffffffffffffffffffffffffffffffffffff1673ffffffffffffffffffffffffffffffffffffffff1681526020016004820160009054906101000a900473ffffffffffffffffffffffffffffffffffffffff1673ffffffffffffffffffffffffffffffffffffffff1673ffffffffffffffffffffffffffffffffffffffff1681526020016005820160009054906101000a900473ffffffffffffffffffffffffffffffffffffffff1673ffffffffffffffffffffffffffffffffffffffff1673ffffffffffffffffffffffffffffffffffffffff168152602001600682016040518060a001604052908160008201805461399690614ebe565b80601f01602080910402602001604051908101604052809291908181526020018280546139c290614ebe565b8015613a0f5780601f106139e457610100808354040283529160200191613a0f565b820191906000526020600020905b8154815290600101906020018083116139f257829003601f168201915b50505050508152602001600182015481526020016002820160009054906101000a900473ffffffffffffffffffffffffffffffffffffffff1673ffffffffffffffffffffffffffffffffffffffff1673ffffffffffffffffffffffffffffffffffffffff168152602001600382015481526020016004820154815250508152602001600b8201548152602001600c820154815250509050600360009054906101000a900460ff1615613afb57613afa6040518060400160405280601081526020017f6368616c6c656e67655061796d656e740000000000000000000000000000000081525084613413565b5b806080015173ffffffffffffffffffffffffffffffffffffffff163373ffffffffffffffffffffffffffffffffffffffff1614613b64576040517fe15e56c900000000000000000000000000000000000000000000000000000000815260040160405180910390fd5b60006004811115613b7857613b7761451f565b5b81600001516004811115613b8f57613b8e61451f565b5b14613bc6576040517f6603b01700000000000000000000000000000000000000000000000000000000815260040160405180910390fd5b806101200151421015613c05576040517fe302ac5f00000000000000000000000000000000000000000000000000000000815260040160405180910390fd5b806101400151816101200151613c1b9190614e5b565b421115613c54576040517f1c3b33d500000000000000000000000000000000000000000000000000000000815260040160405180910390fd5b60026005600085815260200190815260200160002060000160006101000a81548160ff02191690836004811115613c8e57613c8d61451f565b5b021790555060008161010001516080015182610100015160600151613cb39190614e5b565b9050600360009054906101000a900460ff1615613d1d57613d1c6040518060400160405280601c81526020017f6368616c6c656e67655061796d656e74202d20746f74616c426f6e6400000000815250670de0b6b3a764000083613d179190614f9b565b613413565b5b6000600360019054906101000a900473ffffffffffffffffffffffffffffffffffffffff1673ffffffffffffffffffffffffffffffffffffffff16636457c979613e07600560008981526020019081526020016000206006016000018054613d8490614ebe565b80601f0160208091040260200160405190810160405280929190818152602001828054613db090614ebe565b8015613dfd5780601f10613dd257610100808354040283529160200191613dfd565b820191906000526020600020905b815481529060010190602001808311613de057829003601f168201915b505050505061410a565b30306000600860010160009054906101000a900467ffffffffffffffff168961010001516040015189600360019054906101000a900473ffffffffffffffffffffffffffffffffffffffff1673ffffffffffffffffffffffffffffffffffffffff1663d509b0176040518163ffffffff1660e01b8152600401602060405180830381865afa158015613e9d573d6000803e3d6000fd5b505050506040513d601f19601f82011682018060405250810190613ec19190615664565b6000801b6040518a63ffffffff1660e01b8152600401613ee9999897969594939291906156e6565b6020604051808303816000875af1158015613f08573d6000803e3d6000fd5b505050506040513d601f19601f82011682018060405250810190613f2c9190615664565b9050806005600087815260200190815260200160002060060160010181905550846006600083815260200190815260200160002081905550600360009054906101000a900460ff1615613fe357613f9b6040518060600160405280602f8152602001615a13602f913986613413565b613fd96040518060400160405280600c81526020017f417373657274696f6e49643a000000000000000000000000000000000000000081525061368d565b613fe281614133565b5b80857f2563bdb3c91f366313a67c0dae01470068406f16f2a1eba6fa9dd3895933016c33866101000151606001518761010001516080015160405161402a9392919061577a565b60405180910390a3809350505050919050565b6140d582826040516024016140539291906157b1565b6040516020818303038152906040527fc3b55635000000000000000000000000000000000000000000000000000000007bffffffffffffffffffffffffffffffffffffffffffffffffffffffff19166020820180517bffffffffffffffffffffffffffffffffffffffffffffffffffffffff83818316178352505050506140d9565b5050565b60008151905060006a636f6e736f6c652e6c6f679050602083016000808483855afa5050505050565b600033905090565b60608160405160200161411d91906159e5565b6040516020818303038152906040529050919050565b6141c9816040516024016141479190614504565b6040516020818303038152906040527f27b7cf85000000000000000000000000000000000000000000000000000000007bffffffffffffffffffffffffffffffffffffffffffffffffffffffff19166020820180517bffffffffffffffffffffffffffffffffffffffffffffffffffffffff83818316178352505050506140d9565b50565b6000604051905090565b600080fd5b600080fd5b600073ffffffffffffffffffffffffffffffffffffffff82169050919050565b600061420b826141e0565b9050919050565b600061421d82614200565b9050919050565b61422d81614212565b811461423857600080fd5b50565b60008135905061424a81614224565b92915050565b6000819050919050565b61426381614250565b811461426e57600080fd5b50565b6000813590506142808161425a565b92915050565b6000806040838503121561429d5761429c6141d6565b5b60006142ab8582860161423b565b92505060206142bc85828601614271565b9150509250929050565b6142cf81614250565b82525050565b60006020820190506142ea60008301846142c6565b92915050565b600060208284031215614306576143056141d6565b5b600061431484828501614271565b91505092915050565b600060208284031215614333576143326141d6565b5b60006143418482850161423b565b91505092915050565b600061435582614200565b9050919050565b6143658161434a565b811461437057600080fd5b50565b6000813590506143828161435c565b92915050565b6000806040838503121561439f5761439e6141d6565b5b60006143ad8582860161423b565b92505060206143be85828601614373565b9150509250929050565b600067ffffffffffffffff82169050919050565b6143e5816143c8565b82525050565b6143f481614200565b82525050565b600060808201905061440f60008301876142c6565b61441c60208301866143dc565b61442960408301856143eb565b61443660608301846143eb565b95945050505050565b61444881614200565b811461445357600080fd5b50565b6000813590506144658161443f565b92915050565b60008060408385031215614482576144816141d6565b5b60006144908582860161423b565b92505060206144a185828601614456565b9150509250929050565b600080604083850312156144c2576144c16141d6565b5b60006144d085828601614271565b92505060206144e185828601614456565b9150509250929050565b6000819050919050565b6144fe816144eb565b82525050565b600060208201905061451960008301846144f5565b92915050565b7f4e487b7100000000000000000000000000000000000000000000000000000000600052602160045260246000fd5b6005811061455f5761455e61451f565b5b50565b60008190506145708261454e565b919050565b600061458082614562565b9050919050565b61459081614575565b82525050565b600381106145a7576145a661451f565b5b50565b60008190506145b882614596565b919050565b60006145c8826145aa565b9050919050565b6145d8816145bd565b82525050565b6000819050919050565b60006146036145fe6145f9846141e0565b6145de565b6141e0565b9050919050565b6000614615826145e8565b9050919050565b60006146278261460a565b9050919050565b6146378161461c565b82525050565b600081519050919050565b600082825260208201905092915050565b60005b8381101561467757808201518184015260208101905061465c565b60008484015250505050565b6000601f19601f8301169050919050565b600061469f8261463d565b6146a98185614648565b93506146b9818560208601614659565b6146c281614683565b840191505092915050565b6146d6816144eb565b82525050565b6146e58161461c565b82525050565b6146f481614250565b82525050565b600060a08301600083015184820360008601526147178282614694565b915050602083015161472c60208601826146cd565b50604083015161473f60408601826146dc565b50606083015161475260608601826146eb565b50608083015161476560808601826146eb565b508091505092915050565b600061016082019050614786600083018e614587565b614793602083018d6145cf565b6147a0604083018c61462e565b6147ad606083018b6142c6565b6147ba608083018a6143eb565b6147c760a08301896143eb565b6147d460c08301886143eb565b6147e160e08301876143eb565b8181036101008301526147f481866146fa565b90506148046101208301856142c6565b6148126101408301846142c6565b9c9b505050505050505050505050565b600060208201905061483760008301846143eb565b92915050565b600060608201905061485260008301866142c6565b61485f60208301856142c6565b61486c60408301846142c6565b949350505050565b600080fd5b7f4e487b7100000000000000000000000000000000000000000000000000000000600052604160045260246000fd5b6148b182614683565b810181811067ffffffffffffffff821117156148d0576148cf614879565b5b80604052505050565b60006148e36141cc565b90506148ef82826148a8565b919050565b600080fd5b600080fd5b600080fd5b600067ffffffffffffffff82111561491e5761491d614879565b5b61492782614683565b9050602081019050919050565b82818337600083830152505050565b600061495661495184614903565b6148d9565b905082815260208101848484011115614972576149716148fe565b5b61497d848285614934565b509392505050565b600082601f83011261499a576149996148f9565b5b81356149aa848260208601614943565b91505092915050565b600061012082840312156149ca576149c9614874565b5b6149d56101206148d9565b905060006149e58482850161423b565b60008301525060206149f984828501614271565b6020830152506040614a0d84828501614456565b6040830152506060614a2184828501614456565b6060830152506080614a3584828501614456565b60808301525060a0614a4984828501614456565b60a08301525060c082013567ffffffffffffffff811115614a6d57614a6c6148f4565b5b614a7984828501614985565b60c08301525060e0614a8d84828501614271565b60e083015250610100614aa284828501614271565b6101008301525092915050565b600060208284031215614ac557614ac46141d6565b5b600082013567ffffffffffffffff811115614ae357614ae26141db565b5b614aef848285016149b3565b91505092915050565b6000614b038261460a565b9050919050565b614b1381614af8565b82525050565b6000602082019050614b2e6000830184614b0a565b92915050565b614b3d816144eb565b8114614b4857600080fd5b50565b600081359050614b5a81614b34565b92915050565b600060208284031215614b7657614b756141d6565b5b6000614b8484828501614b4b565b91505092915050565b614b96816143c8565b8114614ba157600080fd5b50565b600081359050614bb381614b8d565b92915050565b600060808284031215614bcf57614bce614874565b5b614bd960806148d9565b90506000614be984828501614271565b6000830152506020614bfd84828501614ba4565b6020830152506040614c1184828501614456565b6040830152506060614c2584828501614456565b60608301525092915050565b600060808284031215614c4757614c466141d6565b5b6000614c5584828501614bb9565b91505092915050565b60008115159050919050565b614c7381614c5e565b8114614c7e57600080fd5b50565b600081359050614c9081614c6a565b92915050565b60008060408385031215614cad57614cac6141d6565b5b6000614cbb85828601614b4b565b9250506020614ccc85828601614c81565b9150509250929050565b600060208284031215614cec57614ceb6141d6565b5b6000614cfa84828501614456565b91505092915050565b600080600060608486031215614d1c57614d1b6141d6565b5b6000614d2a8682870161423b565b9350506020614d3b86828701614271565b9250506040614d4c86828701614456565b9150509250925092565b6000604082019050614d6b60008301856143eb565b614d7860208301846142c6565b9392505050565b600081519050614d8e81614c6a565b92915050565b600060208284031215614daa57614da96141d6565b5b6000614db884828501614d7f565b91505092915050565b6000604082019050614dd660008301856142c6565b614de360208301846143eb565b9392505050565b600081519050614df98161425a565b92915050565b600060208284031215614e1557614e146141d6565b5b6000614e2384828501614dea565b91505092915050565b7f4e487b7100000000000000000000000000000000000000000000000000000000600052601160045260246000fd5b6000614e6682614250565b9150614e7183614250565b9250828201905080821115614e8957614e88614e2c565b5b92915050565b7f4e487b7100000000000000000000000000000000000000000000000000000000600052602260045260246000fd5b60006002820490506001821680614ed657607f821691505b602082108103614ee957614ee8614e8f565b5b50919050565b600082825260208201905092915050565b7f4e6f207661756c742073657420666f7220746f6b656e00000000000000000000600082015250565b6000614f36601683614eef565b9150614f4182614f00565b602082019050919050565b60006020820190508181036000830152614f6581614f29565b9050919050565b7f4e487b7100000000000000000000000000000000000000000000000000000000600052601260045260246000fd5b6000614fa682614250565b9150614fb183614250565b925082614fc157614fc0614f6c565b5b828204905092915050565b6000606082019050614fe160008301866143eb565b614fee60208301856143eb565b614ffb60408301846142c6565b949350505050565b600061500e82614250565b915061501983614250565b9250817fffffffffffffffffffffffffffffffffffffffffffffffffffffffffffffffff048311821515161561505257615051614e2c565b5b828202905092915050565b600061506882614250565b915061507383614250565b925082820390508181111561508b5761508a614e2c565b5b92915050565b600061509c82614250565b91507fffffffffffffffffffffffffffffffffffffffffffffffffffffffffffffffff82036150ce576150cd614e2c565b5b600182019050919050565b60008190508160005260206000209050919050565b60006020601f8301049050919050565b600082821b905092915050565b60006008830261513b7fffffffffffffffffffffffffffffffffffffffffffffffffffffffffffffffff826150fe565b61514586836150fe565b95508019841693508086168417925050509392505050565b600061517861517361516e84614250565b6145de565b614250565b9050919050565b6000819050919050565b6151928361515d565b6151a661519e8261517f565b84845461510b565b825550505050565b600090565b6151bb6151ae565b6151c6818484615189565b505050565b5b818110156151ea576151df6000826151b3565b6001810190506151cc565b5050565b601f82111561522f57615200816150d9565b615209846150ee565b81016020851015615218578190505b61522c615224856150ee565b8301826151cb565b50505b505050565b600082821c905092915050565b600061525260001984600802615234565b1980831691505092915050565b600061526b8383615241565b9150826002028217905092915050565b6152848261463d565b67ffffffffffffffff81111561529d5761529c614879565b5b6152a78254614ebe565b6152b28282856151ee565b600060209050601f8311600181146152e557600084156152d3578287015190505b6152dd858261525f565b865550615345565b601f1984166152f3866150d9565b60005b8281101561531b578489015182556001820191506020850194506020810190506152f6565b868310156153385784890151615334601f891682615241565b8355505b6001600288020188555050505b505050505050565b60006153588261463d565b6153628185614eef565b9350615372818560208601614659565b61537b81614683565b840191505092915050565b600060608201905061539b600083018661462e565b6153a860208301856142c6565b81810360408301526153ba818461534d565b9050949350505050565b6153cd816143c8565b82525050565b6153dc81614200565b82525050565b6080820160008201516153f860008501826146eb565b50602082015161540b60208501826153c4565b50604082015161541e60408501826153d3565b50606082015161543160608501826153d3565b50505050565b600060808201905061544c60008301846153e2565b92915050565b61545b81614c5e565b82525050565b60006060820190506154766000830186614587565b61548360208301856145cf565b6154906040830184615452565b949350505050565b7f4f776e61626c653a206e6577206f776e657220697320746865207a65726f206160008201527f6464726573730000000000000000000000000000000000000000000000000000602082015250565b60006154f4602683614eef565b91506154ff82615498565b604082019050919050565b60006020820190508181036000830152615523816154e7565b9050919050565b600060608201905061553f60008301866142c6565b61554c60208301856143eb565b61555960408301846143eb565b949350505050565b6000604082019050818103600083015261557b818561534d565b905061558a60208301846142c6565b9392505050565b600060408201905081810360008301526155ab818561534d565b90506155ba60208301846143eb565b9392505050565b7f4f776e61626c653a2063616c6c6572206973206e6f7420746865206f776e6572600082015250565b60006155f7602083614eef565b9150615602826155c1565b602082019050919050565b60006020820190508181036000830152615626816155ea565b9050919050565b60006020820190508181036000830152615647818461534d565b905092915050565b60008151905061565e81614b34565b92915050565b60006020828403121561567a576156796141d6565b5b60006156888482850161564f565b91505092915050565b600081519050919050565b600082825260208201905092915050565b60006156b882615691565b6156c2818561569c565b93506156d2818560208601614659565b6156db81614683565b840191505092915050565b6000610120820190508181036000830152615701818c6156ad565b9050615710602083018b6143eb565b61571d604083018a6143eb565b61572a60608301896143eb565b61573760808301886143dc565b61574460a083018761462e565b61575160c08301866142c6565b61575e60e08301856144f5565b61576c6101008301846144f5565b9a9950505050505050505050565b600060608201905061578f60008301866143eb565b61579c60208301856142c6565b6157a960408301846142c6565b949350505050565b600060408201905081810360008301526157cb818561534d565b90506157da6020830184615452565b9392505050565b600081905092915050565b7f54776f207061727469657320616772656564206f6e206120636f6e747261637460008201527f20746f2065786368616e6765206120736572766963652f70726f64756374206660208201527f6f722061207061796d656e742e2054686520636f6e747261637420646574616960408201527f6c732063616e20626520666f756e6420617420697066733a2f2f000000000000606082015250565b6000615894607a836157e1565b915061589f826157ec565b607a82019050919050565b60006158b58261463d565b6158bf81856157e1565b93506158cf818560208601614659565b80840191505092915050565b7f2e205468652070726f647563742f7365727669636520776173204e4f5420646560008201527f6c6976657265642077697468696e20636f6e7472616374656420636f6e64697460208201527f696f6e7320616e6420746865207061796d656e742073686f756c64204e4f542060408201527f62652073656e7420746f20736572766963652f70726f647563742070726f766960608201527f64657220616e642073686f756c642062652072657475726e656420746f20746860808201527f652070617965722e00000000000000000000000000000000000000000000000060a082015250565b60006159cf60a8836157e1565b91506159da826158db565b60a882019050919050565b60006159f082615887565b91506159fc82846158aa565b9150615a07826159c2565b91508190509291505056fe456d697474696e67205061796d656e744368616c6c656e676564206576656e7420666f72207061796d656e7449643a456d697474696e67205061796d656e7443726561746564206576656e7420666f72207061796d656e7449643a5374617475733a204348414c4c454e4745445f535543434553534c595f414e445f52455455524e45442c206173736572746564547275746866756c6c793a6368616c6c656e67655061796d656e74537562736964697a6564202d2072656365697665642075736572426f6e64456d697474696e67204d696e416d6f756e74536574206576656e7420666f7220746f6b656e3a6368616c6c656e67655061796d656e74537562736964697a6564202d2073746172745374617475733a204348414c4c454e4745445f4641494c45445f414e445f53454e542c206173736572746564547275746866756c6c793a456d697474696e67205061796d656e7453656e74206576656e7420666f72207061796d656e7449643a6368616c6c656e67655061796d656e74537562736964697a6564202d2075736572426f6e64456d697474696e67205061796d656e745265736f6c766564206576656e7420666f72207061796d656e7449643a456d697474696e67205061796d656e744e6f744368616c6c656e676564206576656e7420666f72207061796d656e7449643a456d697474696e67205061796d656e7452657475726e6564206576656e7420666f72207061796d656e7449643a6368616c6c656e67655061796d656e74537562736964697a6564202d206f7572426f6e64a264697066735822122041a2820c8e0be560be8a5792b8f57dcb89343cf594b195ddbf50322fa39f31a364736f6c63430008100033","linkReferences":{}},"methodIdentifiers":{"assertionDisputedCallback(bytes32)":"d448a4ec","assertionResolvedCallback(bytes32,bool)":"f1b156b2","challengePaymentSovereign(uint256)":"f3d02405","challengePaymentSubsidized(uint256,address)":"80978e3e","claimVaultFees(address,uint256,address)":"f699e580","claimVaultRewards(address,address)":"7c01fdcf","config()":"79502c55","createPayment((address,uint256,address,address,address,address,string,uint256,uint256))":"a28118f8","deposit(address,uint256)":"47e7ef24","getBondAmounts(uint256)":"9995eacb","getClaimableFees(address)":"6a6f66e6","latestId()":"4bfbbe0b","makePayment(uint256)":"5114cb52","minAmounts(address)":"9c5e52d5","owner()":"8da5cb5b","paymentIdOfAssertionId(bytes32)":"de35e7b9","payments(uint256)":"87d81789","renounceOwnership()":"715018a6","resolveNotChallenged(uint256)":"f649b7b3","returnPayment(uint256)":"fcec5044","setMinAmount(address,uint256)":"d5708d5a","setVault(address,address)":"714ccf7b","transferOwnership(address)":"f2fde38b","updateConfig((uint256,uint64,address,address))":"d6b8dbd6","vaultShares(address)":"d7138584","vaults(address)":"a622ee7c","withdraw(address,uint256)":"f3fef3a3"},"id":74}